{
  "contractName": "Conference",
  "abi": [
    {
      "constant": true,
      "inputs": [],
      "name": "numOfAdmins",
      "outputs": [
        {
          "name": "",
          "type": "uint256"
        }
      ],
      "payable": false,
      "stateMutability": "view",
      "type": "function"
    },
    {
      "constant": false,
      "inputs": [
        {
          "name": "oldAdmins",
          "type": "address[]"
        }
      ],
      "name": "revoke",
      "outputs": [],
      "payable": false,
      "stateMutability": "nonpayable",
      "type": "function"
    },
    {
      "constant": true,
      "inputs": [],
      "name": "name",
      "outputs": [
        {
          "name": "",
          "type": "string"
        }
      ],
      "payable": false,
      "stateMutability": "view",
      "type": "function"
    },
    {
      "constant": true,
      "inputs": [
        {
          "name": "",
          "type": "address"
        }
      ],
      "name": "participants",
      "outputs": [
        {
          "name": "participantName",
          "type": "string"
        },
        {
          "name": "addr",
          "type": "address"
        },
        {
          "name": "attended",
          "type": "bool"
        },
        {
          "name": "paid",
          "type": "bool"
        }
      ],
      "payable": false,
      "stateMutability": "view",
      "type": "function"
    },
    {
      "constant": true,
      "inputs": [],
      "name": "ended",
      "outputs": [
        {
          "name": "",
          "type": "bool"
        }
      ],
      "payable": false,
      "stateMutability": "view",
      "type": "function"
    },
    {
      "constant": true,
      "inputs": [
        {
          "name": "",
          "type": "uint256"
        }
      ],
      "name": "admins",
      "outputs": [
        {
          "name": "",
          "type": "address"
        }
      ],
      "payable": false,
      "stateMutability": "view",
      "type": "function"
    },
    {
      "constant": false,
      "inputs": [
        {
          "name": "newAdmins",
          "type": "address[]"
        }
      ],
      "name": "grant",
      "outputs": [],
      "payable": false,
      "stateMutability": "nonpayable",
      "type": "function"
    },
    {
      "constant": true,
      "inputs": [
        {
          "name": "admin",
          "type": "address"
        }
      ],
      "name": "isAdmin",
      "outputs": [
        {
          "name": "",
          "type": "bool"
        }
      ],
      "payable": false,
      "stateMutability": "view",
      "type": "function"
    },
    {
      "constant": true,
      "inputs": [],
      "name": "registered",
      "outputs": [
        {
          "name": "",
          "type": "uint256"
        }
      ],
      "payable": false,
      "stateMutability": "view",
      "type": "function"
    },
    {
      "constant": true,
      "inputs": [],
      "name": "getAdmins",
      "outputs": [
        {
          "name": "",
          "type": "address[]"
        }
      ],
      "payable": false,
      "stateMutability": "view",
      "type": "function"
    },
    {
      "constant": true,
      "inputs": [],
      "name": "endedAt",
      "outputs": [
        {
          "name": "",
          "type": "uint256"
        }
      ],
      "payable": false,
      "stateMutability": "view",
      "type": "function"
    },
    {
      "constant": true,
      "inputs": [],
      "name": "payoutAmount",
      "outputs": [
        {
          "name": "",
          "type": "uint256"
        }
      ],
      "payable": false,
      "stateMutability": "view",
      "type": "function"
    },
    {
      "constant": true,
      "inputs": [],
      "name": "limitOfParticipants",
      "outputs": [
        {
          "name": "",
          "type": "uint256"
        }
      ],
      "payable": false,
      "stateMutability": "view",
      "type": "function"
    },
    {
      "constant": false,
      "inputs": [],
      "name": "destroy",
      "outputs": [],
      "payable": false,
      "stateMutability": "nonpayable",
      "type": "function"
    },
    {
      "constant": true,
      "inputs": [],
      "name": "owner",
      "outputs": [
        {
          "name": "",
          "type": "address"
        }
      ],
      "payable": false,
      "stateMutability": "view",
      "type": "function"
    },
    {
      "constant": true,
      "inputs": [],
      "name": "coolingPeriod",
      "outputs": [
        {
          "name": "",
          "type": "uint256"
        }
      ],
      "payable": false,
      "stateMutability": "view",
      "type": "function"
    },
    {
      "constant": true,
      "inputs": [],
      "name": "cancelled",
      "outputs": [
        {
          "name": "",
          "type": "bool"
        }
      ],
      "payable": false,
      "stateMutability": "view",
      "type": "function"
    },
    {
      "constant": true,
      "inputs": [
        {
          "name": "",
          "type": "uint256"
        }
      ],
      "name": "participantsIndex",
      "outputs": [
        {
          "name": "",
          "type": "address"
        }
      ],
      "payable": false,
      "stateMutability": "view",
      "type": "function"
    },
    {
      "constant": true,
      "inputs": [],
      "name": "encryption",
      "outputs": [
        {
          "name": "",
          "type": "string"
        }
      ],
      "payable": false,
      "stateMutability": "view",
      "type": "function"
    },
    {
      "constant": true,
      "inputs": [],
      "name": "attended",
      "outputs": [
        {
          "name": "",
          "type": "uint256"
        }
      ],
      "payable": false,
      "stateMutability": "view",
      "type": "function"
    },
    {
      "constant": true,
      "inputs": [],
      "name": "deposit",
      "outputs": [
        {
          "name": "",
          "type": "uint256"
        }
      ],
      "payable": false,
      "stateMutability": "view",
      "type": "function"
    },
    {
      "constant": false,
      "inputs": [
        {
          "name": "newOwner",
          "type": "address"
        }
      ],
      "name": "transferOwnership",
      "outputs": [],
      "payable": false,
      "stateMutability": "nonpayable",
      "type": "function"
    },
    {
      "constant": false,
      "inputs": [
        {
          "name": "_recipient",
          "type": "address"
        }
      ],
      "name": "destroyAndSend",
      "outputs": [],
      "payable": false,
      "stateMutability": "nonpayable",
      "type": "function"
    },
    {
      "inputs": [
        {
          "name": "_name",
          "type": "string"
        },
        {
          "name": "_deposit",
          "type": "uint256"
        },
        {
          "name": "_limitOfParticipants",
          "type": "uint256"
        },
        {
          "name": "_coolingPeriod",
          "type": "uint256"
        },
        {
          "name": "_encryption",
          "type": "string"
        }
      ],
      "payable": false,
      "stateMutability": "nonpayable",
      "type": "constructor"
    },
    {
      "anonymous": false,
      "inputs": [
        {
          "indexed": false,
          "name": "addr",
          "type": "address"
        },
        {
          "indexed": false,
          "name": "participantName",
          "type": "string"
        },
        {
          "indexed": false,
          "name": "_encryption",
          "type": "string"
        }
      ],
      "name": "RegisterEvent",
      "type": "event"
    },
    {
      "anonymous": false,
      "inputs": [
        {
          "indexed": false,
          "name": "addr",
          "type": "address"
        }
      ],
      "name": "AttendEvent",
      "type": "event"
    },
    {
      "anonymous": false,
      "inputs": [
        {
          "indexed": false,
          "name": "_payout",
          "type": "uint256"
        }
      ],
      "name": "PaybackEvent",
      "type": "event"
    },
    {
      "anonymous": false,
      "inputs": [
        {
          "indexed": false,
          "name": "addr",
          "type": "address"
        },
        {
          "indexed": false,
          "name": "_payout",
          "type": "uint256"
        }
      ],
      "name": "WithdrawEvent",
      "type": "event"
    },
    {
      "anonymous": false,
      "inputs": [],
      "name": "CancelEvent",
      "type": "event"
    },
    {
      "anonymous": false,
      "inputs": [
        {
          "indexed": false,
          "name": "addr",
          "type": "address"
        },
        {
          "indexed": false,
          "name": "leftOver",
          "type": "uint256"
        }
      ],
      "name": "ClearEvent",
      "type": "event"
    },
    {
      "anonymous": false,
      "inputs": [
        {
          "indexed": true,
          "name": "grantee",
          "type": "address"
        }
      ],
      "name": "AdminGranted",
      "type": "event"
    },
    {
      "anonymous": false,
      "inputs": [
        {
          "indexed": true,
          "name": "grantee",
          "type": "address"
        }
      ],
      "name": "AdminRevoked",
      "type": "event"
    },
    {
      "anonymous": false,
      "inputs": [
        {
          "indexed": true,
          "name": "previousOwner",
          "type": "address"
        },
        {
          "indexed": true,
          "name": "newOwner",
          "type": "address"
        }
      ],
      "name": "OwnershipTransferred",
      "type": "event"
    },
    {
      "constant": false,
      "inputs": [
        {
          "name": "_participant",
          "type": "string"
        },
        {
          "name": "_encrypted",
          "type": "string"
        }
      ],
      "name": "registerWithEncryption",
      "outputs": [],
      "payable": true,
      "stateMutability": "payable",
      "type": "function"
    },
    {
      "constant": false,
      "inputs": [
        {
          "name": "_participant",
          "type": "string"
        }
      ],
      "name": "register",
      "outputs": [],
      "payable": true,
      "stateMutability": "payable",
      "type": "function"
    },
    {
      "constant": false,
      "inputs": [],
      "name": "withdraw",
      "outputs": [],
      "payable": false,
      "stateMutability": "nonpayable",
      "type": "function"
    },
    {
      "constant": true,
      "inputs": [],
      "name": "totalBalance",
      "outputs": [
        {
          "name": "",
          "type": "uint256"
        }
      ],
      "payable": false,
      "stateMutability": "view",
      "type": "function"
    },
    {
      "constant": true,
      "inputs": [
        {
          "name": "_addr",
          "type": "address"
        }
      ],
      "name": "isRegistered",
      "outputs": [
        {
          "name": "",
          "type": "bool"
        }
      ],
      "payable": false,
      "stateMutability": "view",
      "type": "function"
    },
    {
      "constant": true,
      "inputs": [
        {
          "name": "_addr",
          "type": "address"
        }
      ],
      "name": "isAttended",
      "outputs": [
        {
          "name": "",
          "type": "bool"
        }
      ],
      "payable": false,
      "stateMutability": "view",
      "type": "function"
    },
    {
      "constant": true,
      "inputs": [
        {
          "name": "_addr",
          "type": "address"
        }
      ],
      "name": "isPaid",
      "outputs": [
        {
          "name": "",
          "type": "bool"
        }
      ],
      "payable": false,
      "stateMutability": "view",
      "type": "function"
    },
    {
      "constant": true,
      "inputs": [],
      "name": "payout",
      "outputs": [
        {
          "name": "",
          "type": "uint256"
        }
      ],
      "payable": false,
      "stateMutability": "view",
      "type": "function"
    },
    {
      "constant": false,
      "inputs": [],
      "name": "payback",
      "outputs": [],
      "payable": false,
      "stateMutability": "nonpayable",
      "type": "function"
    },
    {
      "constant": false,
      "inputs": [],
      "name": "cancel",
      "outputs": [],
      "payable": false,
      "stateMutability": "nonpayable",
      "type": "function"
    },
    {
      "constant": false,
      "inputs": [],
      "name": "clear",
      "outputs": [],
      "payable": false,
      "stateMutability": "nonpayable",
      "type": "function"
    },
    {
      "constant": false,
      "inputs": [
        {
          "name": "_limitOfParticipants",
          "type": "uint256"
        }
      ],
      "name": "setLimitOfParticipants",
      "outputs": [],
      "payable": false,
      "stateMutability": "nonpayable",
      "type": "function"
    },
    {
      "constant": false,
      "inputs": [
        {
          "name": "_name",
          "type": "string"
        }
      ],
      "name": "changeName",
      "outputs": [],
      "payable": false,
      "stateMutability": "nonpayable",
      "type": "function"
    },
    {
      "constant": false,
      "inputs": [
        {
          "name": "_addresses",
          "type": "address[]"
        }
      ],
      "name": "attend",
      "outputs": [],
      "payable": false,
      "stateMutability": "nonpayable",
      "type": "function"
    }
  ],
  "bytecode": "0x60806040523480156200001157600080fd5b50604051620027e6380380620027e68339810180604052810190808051820192919060200180519060200190929190805190602001909291908051906020019092919080518201929190505050336000806101000a81548173ffffffffffffffffffffffffffffffffffffffff021916908373ffffffffffffffffffffffffffffffffffffffff16021790555060008551141515620000c9578460029080519060200190620000c2929190620001b4565b5062000118565b6040805190810160405280600481526020017f54657374000000000000000000000000000000000000000000000000000000008152506002908051906020019062000116929190620001b4565b505b6000841415156200013057836003819055506200013f565b66470de4df8200006003819055505b60008314151562000157578260048190555062000160565b60146004819055505b60008214151562000178578160098190555062000183565b62093a806009819055505b60008151141515620001a95780600b9080519060200190620001a7929190620001b4565b505b505050505062000263565b828054600181600116156101000203166002900490600052602060002090601f016020900481019282601f10620001f757805160ff191683800117855562000228565b8280016001018555821562000228579182015b82811115620002275782518255916020019190600101906200020a565b5b5090506200023791906200023b565b5090565b6200026091905b808211156200025c57600081600090555060010162000242565b5090565b90565b61257380620002736000396000f3006080604052600436106101cd576000357c0100000000000000000000000000000000000000000000000000000000900463ffffffff1680630191dc92146101d257806305f203d9146101fd57806306fdde031461026357806309e69ede146102f357806312fa6feb146103f857806314bfd6d0146104275780631e3c93521461049457806324d7806c146104fa5780632de40ce31461055557806331ae450b146105805780633ccfd60b146105ec5780633d6a71e41461060357806352efea6e1461062e5780635353a2d8146106455780635d27bff31461068057806363bd1d4a146106c65780636b46c8c3146106f15780636d006ae81461071c5780636ded82f81461074757806383197ef0146107a2578063854bec87146107b95780638da5cb5b146107d05780639328beee14610827578063982495c7146108525780639989a5ae1461088d5780639a82a09a146108ba5780639b25cacb146108e9578063a07f3a5614610956578063a531d362146109b1578063ad7a672f14610a41578063b5e10e9a14610a6c578063c3c5a54714610a97578063d0e30db014610af2578063ea8a1af014610b1d578063f2c298be14610b34578063f2fde38b14610b62578063f5074f4114610ba5575b600080fd5b3480156101de57600080fd5b506101e7610be8565b6040518082815260200191505060405180910390f35b34801561020957600080fd5b5061026160048036038101908080359060200190820180359060200190808060200260200160405190810160405280939291908181526020018383602002808284378201915050505050509192919290505050610bf5565b005b34801561026f57600080fd5b50610278610e20565b6040518080602001828103825283818151815260200191508051906020019080838360005b838110156102b857808201518184015260208101905061029d565b50505050905090810190601f1680156102e55780820380516001836020036101000a031916815260200191505b509250505060405180910390f35b3480156102ff57600080fd5b50610334600480360381019080803573ffffffffffffffffffffffffffffffffffffffff169060200190929190505050610ebe565b60405180806020018573ffffffffffffffffffffffffffffffffffffffff1673ffffffffffffffffffffffffffffffffffffffff1681526020018415151515815260200183151515158152602001828103825286818151815260200191508051906020019080838360005b838110156103ba57808201518184015260208101905061039f565b50505050905090810190601f1680156103e75780820380516001836020036101000a031916815260200191505b509550505050505060405180910390f35b34801561040457600080fd5b5061040d610fc0565b604051808215151515815260200191505060405180910390f35b34801561043357600080fd5b5061045260048036038101908080359060200190929190505050610fd3565b604051808273ffffffffffffffffffffffffffffffffffffffff1673ffffffffffffffffffffffffffffffffffffffff16815260200191505060405180910390f35b3480156104a057600080fd5b506104f860048036038101908080359060200190820180359060200190808060200260200160405190810160405280939291908181526020018383602002808284378201915050505050509192919290505050611011565b005b34801561050657600080fd5b5061053b600480360381019080803573ffffffffffffffffffffffffffffffffffffffff169060200190929190505050611164565b604051808215151515815260200191505060405180910390f35b34801561056157600080fd5b5061056a611265565b6040518082815260200191505060405180910390f35b34801561058c57600080fd5b5061059561126b565b6040518080602001828103825283818151815260200191508051906020019060200280838360005b838110156105d85780820151818401526020810190506105bd565b505050509050019250505060405180910390f35b3480156105f857600080fd5b506106016112f9565b005b34801561060f57600080fd5b50610618611518565b6040518082815260200191505060405180910390f35b34801561063a57600080fd5b5061064361151e565b005b34801561065157600080fd5b5061067e6004803603810190808035906020019082018035906020019190919293919293905050506116ab565b005b6106c460048036038101908080359060200190820180359060200191909192939192939080359060200190820180359060200191909192939192939050505061172d565b005b3480156106d257600080fd5b506106db611831565b6040518082815260200191505060405180910390f35b3480156106fd57600080fd5b50610706611861565b6040518082815260200191505060405180910390f35b34801561072857600080fd5b50610731611867565b6040518082815260200191505060405180910390f35b34801561075357600080fd5b50610788600480360381019080803573ffffffffffffffffffffffffffffffffffffffff16906020019092919050505061186d565b604051808215151515815260200191505060405180910390f35b3480156107ae57600080fd5b506107b76118d7565b005b3480156107c557600080fd5b506107ce61196c565b005b3480156107dc57600080fd5b506107e5611a4e565b604051808273ffffffffffffffffffffffffffffffffffffffff1673ffffffffffffffffffffffffffffffffffffffff16815260200191505060405180910390f35b34801561083357600080fd5b5061083c611a73565b6040518082815260200191505060405180910390f35b34801561085e57600080fd5b5061088b600480360381019080803590602001908201803590602001919091929391929390505050611a79565b005b34801561089957600080fd5b506108b860048036038101908080359060200190929190505050611bf5565b005b3480156108c657600080fd5b506108cf611c76565b604051808215151515815260200191505060405180910390f35b3480156108f557600080fd5b5061091460048036038101908080359060200190929190505050611c89565b604051808273ffffffffffffffffffffffffffffffffffffffff1673ffffffffffffffffffffffffffffffffffffffff16815260200191505060405180910390f35b34801561096257600080fd5b50610997600480360381019080803573ffffffffffffffffffffffffffffffffffffffff169060200190929190505050611cbc565b604051808215151515815260200191505060405180910390f35b3480156109bd57600080fd5b506109c6611d26565b6040518080602001828103825283818151815260200191508051906020019080838360005b83811015610a065780820151818401526020810190506109eb565b50505050905090810190601f168015610a335780820380516001836020036101000a031916815260200191505b509250505060405180910390f35b348015610a4d57600080fd5b50610a56611dc4565b6040518082815260200191505060405180910390f35b348015610a7857600080fd5b50610a81611de3565b6040518082815260200191505060405180910390f35b348015610aa357600080fd5b50610ad8600480360381019080803573ffffffffffffffffffffffffffffffffffffffff169060200190929190505050611de9565b604051808215151515815260200191505060405180910390f35b348015610afe57600080fd5b50610b07611e84565b6040518082815260200191505060405180910390f35b348015610b2957600080fd5b50610b32611e8a565b005b610b60600480360381019080803590602001908201803590602001919091929391929390505050611f75565b005b348015610b6e57600080fd5b50610ba3600480360381019080803573ffffffffffffffffffffffffffffffffffffffff169060200190929190505050612069565b005b348015610bb157600080fd5b50610be6600480360381019080803573ffffffffffffffffffffffffffffffffffffffff1690602001909291905050506121be565b005b6000600180549050905090565b6000806000809054906101000a900473ffffffffffffffffffffffffffffffffffffffff1673ffffffffffffffffffffffffffffffffffffffff163373ffffffffffffffffffffffffffffffffffffffff16141515610c5357600080fd5b600091505b8251821015610e1b57600090505b600180549050811015610e0e578282815181101515610c8157fe5b9060200190602002015173ffffffffffffffffffffffffffffffffffffffff16600182815481101515610cb057fe5b9060005260206000200160009054906101000a900473ffffffffffffffffffffffffffffffffffffffff1673ffffffffffffffffffffffffffffffffffffffff161415610e0357600180808054905003815481101515610d0c57fe5b9060005260206000200160009054906101000a900473ffffffffffffffffffffffffffffffffffffffff16600182815481101515610d4657fe5b9060005260206000200160006101000a81548173ffffffffffffffffffffffffffffffffffffffff021916908373ffffffffffffffffffffffffffffffffffffffff1602179055506001805480919060019003610da391906123f6565b508282815181101515610db257fe5b9060200190602002015173ffffffffffffffffffffffffffffffffffffffff167f631ff1c4e1a02c54b480a34b810e03bcee61fe38efcb243930a7f820914923e260405160405180910390a2610e0e565b816001019150610c66565b8180600101925050610c58565b505050565b60028054600181600116156101000203166002900480601f016020809104026020016040519081016040528092919081815260200182805460018160011615610100020316600290048015610eb65780601f10610e8b57610100808354040283529160200191610eb6565b820191906000526020600020905b815481529060010190602001808311610e9957829003601f168201915b505050505081565b600c602052806000526040600020600091509050806000018054600181600116156101000203166002900480601f016020809104026020016040519081016040528092919081815260200182805460018160011615610100020316600290048015610f6a5780601f10610f3f57610100808354040283529160200191610f6a565b820191906000526020600020905b815481529060010190602001808311610f4d57829003601f168201915b5050505050908060010160009054906101000a900473ffffffffffffffffffffffffffffffffffffffff16908060010160149054906101000a900460ff16908060010160159054906101000a900460ff16905084565b600760009054906101000a900460ff1681565b600181815481101515610fe257fe5b906000526020600020016000915054906101000a900473ffffffffffffffffffffffffffffffffffffffff1681565b60008060009054906101000a900473ffffffffffffffffffffffffffffffffffffffff1673ffffffffffffffffffffffffffffffffffffffff163373ffffffffffffffffffffffffffffffffffffffff1614151561106e57600080fd5b600090505b8151811015611160576001828281518110151561108c57fe5b9060200190602002015190806001815401808255809150509060018203906000526020600020016000909192909190916101000a81548173ffffffffffffffffffffffffffffffffffffffff021916908373ffffffffffffffffffffffffffffffffffffffff16021790555050818181518110151561110757fe5b9060200190602002015173ffffffffffffffffffffffffffffffffffffffff167f1c4e23de8d72c94b22992bd4d7b6786b215ba876af214ff63e6a0ca38fc97af460405160405180910390a28080600101915050611073565b5050565b6000806000809054906101000a900473ffffffffffffffffffffffffffffffffffffffff1673ffffffffffffffffffffffffffffffffffffffff168373ffffffffffffffffffffffffffffffffffffffff1614156111c5576001915061125f565b600090505b60018054905081101561125a578273ffffffffffffffffffffffffffffffffffffffff166001828154811015156111fd57fe5b9060005260206000200160009054906101000a900473ffffffffffffffffffffffffffffffffffffffff1673ffffffffffffffffffffffffffffffffffffffff16141561124d576001915061125f565b80806001019150506111ca565b600091505b50919050565b60055481565b606060018054806020026020016040519081016040528092919081815260200182805480156112ef57602002820191906000526020600020905b8160009054906101000a900473ffffffffffffffffffffffffffffffffffffffff1673ffffffffffffffffffffffffffffffffffffffff16815260200190600101908083116112a5575b5050505050905090565b6000600760009054906101000a900460ff16151561131657600080fd5b6000600a5411151561132757600080fd5b600c60003373ffffffffffffffffffffffffffffffffffffffff1673ffffffffffffffffffffffffffffffffffffffff16815260200190815260200160002090503373ffffffffffffffffffffffffffffffffffffffff168160010160009054906101000a900473ffffffffffffffffffffffffffffffffffffffff1673ffffffffffffffffffffffffffffffffffffffff161415156113c657600080fd5b600760019054906101000a900460ff16806113ef57508060010160149054906101000a900460ff165b15156113fa57600080fd5b600015158160010160159054906101000a900460ff16151514151561141e57600080fd5b60018160010160156101000a81548160ff0219169083151502179055508060010160009054906101000a900473ffffffffffffffffffffffffffffffffffffffff1673ffffffffffffffffffffffffffffffffffffffff166108fc600a549081150290604051600060405180830381858888f193505050501580156114a7573d6000803e3d6000fd5b507f5dba113b49cfa7c90315e8e604e6b506f7abcb909b01dcb19ec39005086e68fc33600a54604051808373ffffffffffffffffffffffffffffffffffffffff1673ffffffffffffffffffffffffffffffffffffffff1681526020018281526020019250505060405180910390a150565b60085481565b60008060009054906101000a900473ffffffffffffffffffffffffffffffffffffffff1673ffffffffffffffffffffffffffffffffffffffff163373ffffffffffffffffffffffffffffffffffffffff1614151561157b57600080fd5b600760009054906101000a900460ff16151561159657600080fd5b60095460085401421115156115aa57600080fd5b6115b2611dc4565b90506000809054906101000a900473ffffffffffffffffffffffffffffffffffffffff1673ffffffffffffffffffffffffffffffffffffffff166108fc829081150290604051600060405180830381858888f1935050505015801561161b573d6000803e3d6000fd5b507f61355a34c3bc2e502a24eba7ad2fb0fd0d05c4f71de8cb041fbe39cd3649665e6000809054906101000a900473ffffffffffffffffffffffffffffffffffffffff1682604051808373ffffffffffffffffffffffffffffffffffffffff1673ffffffffffffffffffffffffffffffffffffffff1681526020018281526020019250505060405180910390a150565b6000809054906101000a900473ffffffffffffffffffffffffffffffffffffffff1673ffffffffffffffffffffffffffffffffffffffff163373ffffffffffffffffffffffffffffffffffffffff1614151561170657600080fd5b600060055414151561171757600080fd5b818160029190611728929190612422565b505050565b600760009054906101000a900460ff1615151561174957600080fd5b61178484848080601f016020809104026020016040519081016040528093929190818152602001838380828437820191505050505050612232565b7f8d272c75acbe64f584f00b43ea2e4ac139abac8e8b8f118e5588e14bbb5c40313385858585604051808673ffffffffffffffffffffffffffffffffffffffff1673ffffffffffffffffffffffffffffffffffffffff1681526020018060200180602001838103835287878281815260200192508082843782019150508381038252858582818152602001925080828437820191505097505050505050505060405180910390a150505050565b6000806006541415611846576000905061185e565b600654611851611dc4565b81151561185a57fe5b0490505b90565b600a5481565b60045481565b600061187882611de9565b80156118d05750600c60008373ffffffffffffffffffffffffffffffffffffffff1673ffffffffffffffffffffffffffffffffffffffff16815260200190815260200160002060010160159054906101000a900460ff165b9050919050565b6000809054906101000a900473ffffffffffffffffffffffffffffffffffffffff1673ffffffffffffffffffffffffffffffffffffffff163373ffffffffffffffffffffffffffffffffffffffff1614151561193257600080fd5b6000809054906101000a900473ffffffffffffffffffffffffffffffffffffffff1673ffffffffffffffffffffffffffffffffffffffff16ff5b6000809054906101000a900473ffffffffffffffffffffffffffffffffffffffff1673ffffffffffffffffffffffffffffffffffffffff163373ffffffffffffffffffffffffffffffffffffffff161415156119c757600080fd5b600760009054906101000a900460ff161515156119e357600080fd5b6119eb611831565b600a819055506001600760006101000a81548160ff021916908315150217905550426008819055507fb7152de35affc741a6b2355d37e9caf51fe847cacfccd414be5e15996ff7e6c6600a546040518082815260200191505060405180910390a1565b6000809054906101000a900473ffffffffffffffffffffffffffffffffffffffff1681565b60095481565b600080611a8533611164565b1515611a9057600080fd5b600760009054906101000a900460ff16151515611aac57600080fd5b600091505b83839050821015611bef578383838181101515611aca57fe5b9050602002013573ffffffffffffffffffffffffffffffffffffffff169050611af281611de9565b1515611afd57600080fd5b611b0681611cbc565b151515611b1257600080fd5b7f1c5e7a37dd4095194684d8f835d2c81b686d64d685032055a7cd02edc7c49ed881604051808273ffffffffffffffffffffffffffffffffffffffff1673ffffffffffffffffffffffffffffffffffffffff16815260200191505060405180910390a16001600c60008373ffffffffffffffffffffffffffffffffffffffff1673ffffffffffffffffffffffffffffffffffffffff16815260200190815260200160002060010160146101000a81548160ff0219169083151502179055506006600081548092919060010191905055508180600101925050611ab1565b50505050565b6000809054906101000a900473ffffffffffffffffffffffffffffffffffffffff1673ffffffffffffffffffffffffffffffffffffffff163373ffffffffffffffffffffffffffffffffffffffff16141515611c5057600080fd5b600760009054906101000a900460ff16151515611c6c57600080fd5b8060048190555050565b600760019054906101000a900460ff1681565b600d6020528060005260406000206000915054906101000a900473ffffffffffffffffffffffffffffffffffffffff1681565b6000611cc782611de9565b8015611d1f5750600c60008373ffffffffffffffffffffffffffffffffffffffff1673ffffffffffffffffffffffffffffffffffffffff16815260200190815260200160002060010160149054906101000a900460ff165b9050919050565b600b8054600181600116156101000203166002900480601f016020809104026020016040519081016040528092919081815260200182805460018160011615610100020316600290048015611dbc5780601f10611d9157610100808354040283529160200191611dbc565b820191906000526020600020905b815481529060010190602001808311611d9f57829003601f168201915b505050505081565b60003073ffffffffffffffffffffffffffffffffffffffff1631905090565b60065481565b60008073ffffffffffffffffffffffffffffffffffffffff16600c60008473ffffffffffffffffffffffffffffffffffffffff1673ffffffffffffffffffffffffffffffffffffffff16815260200190815260200160002060010160009054906101000a900473ffffffffffffffffffffffffffffffffffffffff1673ffffffffffffffffffffffffffffffffffffffff1614159050919050565b60035481565b6000809054906101000a900473ffffffffffffffffffffffffffffffffffffffff1673ffffffffffffffffffffffffffffffffffffffff163373ffffffffffffffffffffffffffffffffffffffff16141515611ee557600080fd5b600760009054906101000a900460ff16151515611f0157600080fd5b600354600a819055506001600760016101000a81548160ff0219169083151502179055506001600760006101000a81548160ff021916908315150217905550426008819055507faac5ae2dfd439bb6c2f88b2d8af5b285cfee7584ad0d13ae7c00c1226c7c4c7b60405160405180910390a1565b600760009054906101000a900460ff16151515611f9157600080fd5b611fcc82828080601f016020809104026020016040519081016040528093929190818152602001838380828437820191505050505050612232565b7f8d272c75acbe64f584f00b43ea2e4ac139abac8e8b8f118e5588e14bbb5c4031338383604051808473ffffffffffffffffffffffffffffffffffffffff1673ffffffffffffffffffffffffffffffffffffffff1681526020018060200180602001838103835285858281815260200192508082843782019150508381038252600081526020016020019550505050505060405180910390a15050565b6000809054906101000a900473ffffffffffffffffffffffffffffffffffffffff1673ffffffffffffffffffffffffffffffffffffffff163373ffffffffffffffffffffffffffffffffffffffff161415156120c457600080fd5b600073ffffffffffffffffffffffffffffffffffffffff168173ffffffffffffffffffffffffffffffffffffffff161415151561210057600080fd5b8073ffffffffffffffffffffffffffffffffffffffff166000809054906101000a900473ffffffffffffffffffffffffffffffffffffffff1673ffffffffffffffffffffffffffffffffffffffff167f8be0079c531659141344cd1fd0a4f28419497f9722a3daafe3b4186f6b6457e060405160405180910390a3806000806101000a81548173ffffffffffffffffffffffffffffffffffffffff021916908373ffffffffffffffffffffffffffffffffffffffff16021790555050565b6000809054906101000a900473ffffffffffffffffffffffffffffffffffffffff1673ffffffffffffffffffffffffffffffffffffffff163373ffffffffffffffffffffffffffffffffffffffff1614151561221957600080fd5b8073ffffffffffffffffffffffffffffffffffffffff16ff5b6003543414151561224257600080fd5b60045460055410151561225457600080fd5b61225d33611de9565b15151561226957600080fd5b60056000815480929190600101919050555033600d6000600554815260200190815260200160002060006101000a81548173ffffffffffffffffffffffffffffffffffffffff021916908373ffffffffffffffffffffffffffffffffffffffff1602179055506080604051908101604052808281526020013373ffffffffffffffffffffffffffffffffffffffff16815260200160001515815260200160001515815250600c60003373ffffffffffffffffffffffffffffffffffffffff1673ffffffffffffffffffffffffffffffffffffffff16815260200190815260200160002060008201518160000190805190602001906123689291906124a2565b5060208201518160010160006101000a81548173ffffffffffffffffffffffffffffffffffffffff021916908373ffffffffffffffffffffffffffffffffffffffff16021790555060408201518160010160146101000a81548160ff02191690831515021790555060608201518160010160156101000a81548160ff02191690831515021790555090505050565b81548183558181111561241d5781836000526020600020918201910161241c9190612522565b5b505050565b828054600181600116156101000203166002900490600052602060002090601f016020900481019282601f1061246357803560ff1916838001178555612491565b82800160010185558215612491579182015b82811115612490578235825591602001919060010190612475565b5b50905061249e9190612522565b5090565b828054600181600116156101000203166002900490600052602060002090601f016020900481019282601f106124e357805160ff1916838001178555612511565b82800160010185558215612511579182015b828111156125105782518255916020019190600101906124f5565b5b50905061251e9190612522565b5090565b61254491905b80821115612540576000816000905550600101612528565b5090565b905600a165627a7a72305820dd426b1c0ecb033091c4cc5bce34c4a7765649e452ca0a77420026ab68c0d9570029",
  "source": "pragma solidity 0.4.24;\n\nimport './GroupAdmin.sol';\nimport './zeppelin/lifecycle/Destructible.sol';\n\ncontract Conference is Destructible, GroupAdmin {    \n    string public name;\n    uint256 public deposit;\n    uint public limitOfParticipants;\n    uint public registered;\n    uint public attended;\n    bool public ended;\n    bool public cancelled;\n    uint public endedAt;\n    uint public coolingPeriod;\n    uint256 public payoutAmount;\n    string public encryption;\n\n    mapping (address => Participant) public participants;\n    mapping (uint => address) public participantsIndex;\n\n    struct Participant {\n        string participantName;\n        address addr;\n        bool attended;\n        bool paid;\n    }\n\n    event RegisterEvent(address addr, string participantName, string _encryption);\n    event AttendEvent(address addr);\n    event PaybackEvent(uint256 _payout);\n    event WithdrawEvent(address addr, uint256 _payout);\n    event CancelEvent();\n    event ClearEvent(address addr, uint256 leftOver);\n\n    /* Modifiers */\n    modifier onlyActive {\n        require(!ended);\n        _;\n    }\n\n    modifier noOneRegistered {\n        require(registered == 0);\n        _;\n    }\n\n    modifier onlyEnded {\n        require(ended);\n        _;\n    }\n\n    /* Public functions */\n    /**\n     * @dev Construcotr.\n     * @param _name The name of the event\n     * @param _deposit The amount each participant deposits. The default is set to 0.02 Ether. The amount cannot be changed once deployed.\n     * @param _limitOfParticipants The number of participant. The default is set to 20. The number can be changed by the owner of the event.\n     * @param _coolingPeriod The period participants should withdraw their deposit after the event ends. After the cooling period, the event owner can claim the remining deposits.\n     * @param _encryption A pubic key. The admin can use this public key to encrypt pariticipant username which is stored in event. The admin can later decrypt the name using his/her private key.\n     */\n    constructor (\n        string _name,\n        uint256 _deposit,\n        uint _limitOfParticipants,\n        uint _coolingPeriod,\n        string _encryption\n    ) public {\n        if (bytes(_name).length != 0){\n            name = _name;\n        } else {\n            name = 'Test';\n        }\n\n        if(_deposit != 0){\n            deposit = _deposit;\n        }else{\n            deposit = 0.02 ether;\n        }\n\n        if (_limitOfParticipants != 0){\n            limitOfParticipants = _limitOfParticipants;\n        }else{\n            limitOfParticipants = 20;\n        }\n\n        if (_coolingPeriod != 0) {\n            coolingPeriod = _coolingPeriod;\n        } else {\n            coolingPeriod = 1 weeks;\n        }\n\n        if (bytes(_encryption).length != 0) {\n            encryption = _encryption;\n        }\n    }\n\n    /**\n     * @dev Registers with twitter name and full user name (the user name is encrypted).\n     * @param _participant The twitter address of the participant\n     * @param _encrypted The encrypted participant name\n     */\n    function registerWithEncryption(string _participant, string _encrypted) external payable onlyActive{\n        registerInternal(_participant);\n        emit RegisterEvent(msg.sender, _participant, _encrypted);\n    }\n\n    /**\n     * @dev Registers with twitter name.\n     * @param _participant The twitter address of the participant\n     */\n    function register(string _participant) external payable onlyActive{\n        registerInternal(_participant);\n        emit RegisterEvent(msg.sender, _participant, '');\n    }\n\n    /**\n     * @dev The internal function to register participant\n     * @param _participant The twitter address of the participant\n     */\n    function registerInternal(string _participant) internal {\n        require(msg.value == deposit);\n        require(registered < limitOfParticipants);\n        require(!isRegistered(msg.sender));\n\n        registered++;\n        participantsIndex[registered] = msg.sender;\n        participants[msg.sender] = Participant(_participant, msg.sender, false, false);\n    }\n\n    /**\n     * @dev Withdraws deposit after the event is over.\n     */\n    function withdraw() external onlyEnded{\n        require(payoutAmount > 0);\n        Participant participant = participants[msg.sender];\n        require(participant.addr == msg.sender);\n        require(cancelled || participant.attended);\n        require(participant.paid == false);\n\n        participant.paid = true;\n        participant.addr.transfer(payoutAmount);\n        emit WithdrawEvent(msg.sender, payoutAmount);\n    }\n\n    /* Constants */\n    /**\n     * @dev Returns total balance of the contract. This function can be deprecated when refactroing front end code.\n     * @return The total balance of the contract.\n     */\n    function totalBalance() view public returns (uint256){\n        return address(this).balance;\n    }\n\n    /**\n     * @dev Returns true if the given user is registered.\n     * @param _addr The address of a participant.\n     * @return True if the address exists in the pariticipant list.\n     */\n    function isRegistered(address _addr) view public returns (bool){\n        return participants[_addr].addr != address(0);\n    }\n\n    /**\n     * @dev Returns true if the given user is attended.\n     * @param _addr The address of a participant.\n     * @return True if the user is marked as attended by admin.\n     */\n    function isAttended(address _addr) view public returns (bool){\n        return isRegistered(_addr) && participants[_addr].attended;\n    }\n\n    /**\n     * @dev Returns true if the given user has withdrawn his/her deposit.\n     * @param _addr The address of a participant.\n     * @return True if the attendee has withdrawn his/her deposit.\n     */\n    function isPaid(address _addr) view public returns (bool){\n        return isRegistered(_addr) && participants[_addr].paid;\n    }\n\n    /**\n     * @dev Show the payout amount each participant can withdraw.\n     * @return The amount each participant can withdraw.\n     */\n    function payout() view public returns(uint256){\n        if (attended == 0) return 0;\n        return uint(totalBalance()) / uint(attended);\n    }\n\n    /* Admin only functions */\n\n    /**\n     * @dev Ends the event by owner\n     */\n    function payback() external onlyOwner onlyActive{\n        payoutAmount = payout();\n        ended = true;\n        endedAt = now;\n        emit PaybackEvent(payoutAmount);\n    }\n\n    /**\n     * @dev Cancels the event by owner. When the event is canceled each participant can withdraw their deposit back.\n     */\n    function cancel() external onlyOwner onlyActive{\n        payoutAmount = deposit;\n        cancelled = true;\n        ended = true;\n        endedAt = now;\n        emit CancelEvent();\n    }\n\n    /**\n    * @dev The event owner transfer the outstanding deposits  if there are any unclaimed deposits after cooling period\n    */\n    function clear() external onlyOwner onlyEnded{\n        require(now > endedAt + coolingPeriod);\n        uint leftOver = totalBalance();\n        owner.transfer(leftOver);\n        emit ClearEvent(owner, leftOver);\n    }\n\n    /**\n     * @dev Change the capacity of the event. The owner can change it until event is over.\n     * @param _limitOfParticipants the number of the capacity of the event.\n     */\n    function setLimitOfParticipants(uint _limitOfParticipants) external onlyOwner onlyActive{\n        limitOfParticipants = _limitOfParticipants;\n    }\n\n    /**\n     * @dev Change the name of the event. The owner can change it as long as no one has registered yet.\n     * @param _name the name of the event.\n     */\n    function changeName(string _name) external onlyOwner noOneRegistered{\n        name = _name;\n    }\n\n    /**\n     * @dev Mark participants as attended. The attendance cannot be undone.\n     * @param _addresses The list of participant's address.\n     */\n    function attend(address[] _addresses) external onlyAdmin onlyActive{\n        for( uint i = 0; i < _addresses.length; i++){\n            address _addr = _addresses[i];\n            require(isRegistered(_addr));\n            require(!isAttended(_addr));\n            emit AttendEvent(_addr);\n            participants[_addr].attended = true;\n            attended++;\n        }\n    }\n}\n",
  "sourcePath": "/Users/makoto/work/blockparty/contracts/Conference.sol",
  "compiler": {
    "name": "solc",
    "version": "0.4.24+commit.e67f0147.Emscripten.clang"
  },
  "schemaVersion": "2.0.1",
  "updatedAt": "2018-07-16T16:11:49.177Z"
}